:100000000C9439040C94ED070C94FE070C945604E0
:100010000C9456040C9456040C9456040C945604F8
:100020000C9456040C9456040C9456040C945604E8
:100030000C9456040C9438080C9456040C945604F2
:100040000C9456040C9456040C9453080C947F089A
:100050000C9456040C9456040C9456040C945604B8
:100060000C9456040C945604B707C006C006C0068C
:10007000C006C006C006C006C006C006C006C00650
:10008000C006C006C006C006C006C006C006C00640
:10009000C006C006C006C006C006C006C006C00630
:1000A0004C07C006C0064607C006C006C006C0060C
:1000B0004007C006C006C006C006C006C006C0068F
:1000C000C006C006C0063A07C006C006C006C00685
:1000D000C006C006C006C006C006C006C006C006F0
:1000E000C006C00635072F07C0062A07C00622072C
:1000F0001C07C006C006C006C00612070407FC069F
:10010000F406EA06C006E406D107C107C006C00629
:10011000BC07C907776F726C642073746172746571
:10012000642E2E2E200A007261696E207374617233
:100130007465642E2E2E200A0047616D65206F665F
:10014000204C69666520737461727465642E2E2E6E
:10015000200A00536E616B6520737461727465646C
:100160002E2E2E200A00506F6E67207374617274F9
:1001700065642E2E2E200A004D616E75616C204341
:100180006F6C6F7273656C656374696F6E207374E6
:1001900061727465642E2E2E200A00546573746992
:1001A0006E672E2E2E200A00466164696E67204C11
:1001B0006564732E2E2E200A0053454C454354206F
:1001C00070726573736564200A0052494748542071
:1001D00070726573736564200A00444F574E207037
:1001E000726573736564200A004C45465420707232
:1001F0006573736564200A005550207072657373CF
:100200006564200A004E756D626572206F66206419
:100210006973706C6179656420526F77733A20005E
:1002200020427974650A00617661696C61626C656F
:100230002052414D3A20006F203D20526F7461746E
:10024000696F6E206F6E2F6F66660A0044203D2036
:10025000446562756767696E67206F6E2F6F6666AB
:100260000A000A4F7074696F6E733A0A0078203D75
:1002700020446F74732028416E696D6174696F6EDC
:10028000290A006C203D2047616D65206F66204C77
:100290006966652028416E696D6174696F6E290A0F
:1002A000006E203D20536E616B65202847616D65AF
:1002B000290A0070203D20506F6E67202847616D2D
:1002C00065290A0020202020527C477C42203D20C6
:1002D000696E63726561736520636F6C6F722D76F2
:1002E000616C75650A0020202020727C677C62208A
:1002F0003D20646563726561736520636F6C6F7226
:100300002D76616C75650A006D203D204D616E751E
:10031000616C20636F6C6F722D73656C65637469BB
:100320006F6E0A0074203D2054657374696E670A0D
:100330000066203D205247422D466164650A000A4E
:100340004D6F6465733A0A00446972656374696F3E
:100350006E733A0A77203D2075700A61203D206C4B
:100360006566740A73203D20646F776E0A64203DD1
:100370002072696768740A0A004C45442D476C6F07
:100380006265200A004C45442D476C6F62652076FB
:10039000312E300A000000000000000000000000C4
:1003A000000000000000000000000000000000004D
:1003B000000000000000000000000000000000003D
:1003C000000000000000000000003FFE00000000F0
:1003D00000003C0C71FE0000070000007FFD70FC77
:1003E00000003FFF1C00FFFF39F00381FFFFF80012
:1003F0000FF8018007FFFFFFE0000FF8C0000CFFBF
:10040000FFFFC4003FF9F00084FFFFFFC0003FFF83
:10041000F0008FFFFFFFF0007FCF80007FFFFFFF26
:10042000F000FFFE00007F84FFFFE000FFFC000102
:10043000C386FFFFE000FFF80001807EFFFFC400DD
:10044000FFC00001F80FFFFFC0007C000001FFBFEC
:10045000FFFFE00038000003FFFFBFFFE0003800AF
:100460000007FFF7C3FFC0000E000007FFFBC1F34A
:10047000800003000007FFFB01C180000138000776
:10048000FFFE0080C000007E0003FFFF00000000B0
:10049000007F80000FFE00010000007FC00007FC0D
:1004A0000001200000FFF80007FC0000A000007F12
:1004B000FC0007F800000000003FFC0003F800000B
:1004C0000E00003FF80007F8000002000007F800E7
:1004D00007F1000000000007F80003F20000000030
:1004E0000007F00003C00000E4000007C00003C0E4
:1004F0000001FC000007C00001000007FE0000072B
:10050000800000000007FF0000030000000000075B
:10051000FF0000030000000000077F000003000050
:10052000000000000E0000010000000000000400B8
:1005300000000000000000000000000000000000BB
:1005400000000000000000000000000000000000AB
:10055000000000000000000000000000000000009B
:10056000000000000000000000000000000000008B
:100570000000000000FFFFFFFFFFFFFFFFFFFFAADB
:10058000AAAAAAAAAAAAAAAAAA0000000000000071
:1005900000000080000000000000000000000000DB
:1005A00000000000000000FF00FF00FF00FF00FF50
:1005B00000000000000000000000008000000000BB
:1005C00000000000000000000000000000000080AB
:1005D000000000000000000000FFFFFFFFFFFFFF22
:1005E000FFFFFF800000000000000000000000008E
:1005F000000000000000008000000000000000007B
:10060000000000000000000000000080000000006A
:10061000000000000000000000000000000000805A
:1006200000000000000000000000000000000000CA
:10063000000000800006000000000000000000062E
:1006400000000000000000FE0300000000000000A9
:100650000000030000000000000000800000000017
:100660000000000000000001800000000000008089
:1006700000018000000000000000000000000000F9
:1006800000000080000000000000000000000000EA
:1006900000000000000000800000000000000000DA
:1006A00000000000000000000000008000000000CA
:1006B00000000000000000000000000000000080BA
:1006C000000000000000000000000000000000002A
:1006D000000000800000000000000000000000009A
:1006E000000000000000008000000000000000008A
:1006F000000000000000000000000080000000007A
:100700000000000000000000000000000000008069
:1007100000000000000000000000000000000000D9
:100720000000008000000000000000000000000049
:100730000000000000000080000000000000000039
:100740000000000000000000000000800000000029
:100750000000000000000000444040550000D7DBCE
:10076000A07A65E00924904A4A50440000244420BD
:1007700042224052500004E40000044000E0000027
:10078000004012248069996026A2206924F0E1616A
:10079000E099F110F861E068E960F124806969602E
:1007A0006971600404000404400343000F0F000C4F
:1007B0002C00692040F7B7B069F990E9E9E0788842
:1007C00070E999E0F8E8F0F8E88068A96099F99094
:1007D000444440F119609ACA908888F09F99909D8E
:1007E000DBB0699960E9E88069DA50E9EA907861FC
:1007F000E0F22220999960999660999F60966690A0
:10080000996220F124F06444608442106222604ABC
:1008100000000000F0844000069B5088E9E0068854
:100820006011F97069E86034E44069716088E990AA
:100830004044402022C088ACA044442009F99000E4
:10084000E990006960069E8006971000B4406861D8
:10085000604E4420009960009660009F6000A4A054
:100860009524800F24F06484604444406212600543
:10087000A00011241FBECFEFD8E0DEBFCDBF12E035
:10088000A0E0B1E0E6E6FAE402C005900D92A235E0
:10089000B107D9F718E0A2E5B2E001C01D92AE3170
:1008A000B107E1F70E9468210C9431250C940000F7
:1008B000279A1F988FE798E3A1E081509040A040CD
:1008C000E1F700C000001F9A27988FEF9DE3A9E48D
:1008D00081509040A040E1F700C0000008950E94C0
:1008E000F3080895CF93DF93CFECD2E090E0BE0100
:1008F0004AE050E00E948F24CE010E94F308DF916D
:10090000CF9108950E943F090E9425080895809381
:1009100052020895809152020895DF92EF92FF9261
:100920000F931F93CF93DF938C018091DD02882377
:10093000E1F390E9E92EF12CE00EF11E8DE2D82EC4
:100940008D2D93E0899FE0011124C00FD11F888174
:100950000E94480989810E9448098A810E944809A9
:10096000CD2DC150E3E0CE9FE0011124C00FD11F77
:1009700088810E94480989810E9448098A810E94D1
:100980004809CD2DC250F3E0CF9FE0011124C00FE4
:10099000D11F88810E94480989810E9448098A8163
:1009A0000E944809F70180810E944809F70181816E
:1009B0000E944809F70182810E944809CD2DCE5F2F
:1009C000F3E0CF9FE0011124C00FD11F88810E9466
:1009D000480989810E9448098A810E944809CD2DD1
:1009E000CF5F83E0C89FE0011124C00FD11F888131
:1009F0000E94480989810E9448098A810E94480909
:100A00009AEFD90EEEEEFFEFEE0EFF1EFD2DFD3F2D
:100A100009F096CF0E942908DF91CF911F910F9185
:100A2000FF90EF90DF9008950F931F93CF93DF9384
:100A3000C82FD62F042F8091DD028823E1F310E325
:100A40008C2F0E9448098D2F0E944809802F0E94F8
:100A500048091150A9F70E942908DF91CF911F91F1
:100A60000F9108950F931F93CF93DF939091DD0221
:100A70009923E1F3873051F18830D0F08830F1F0DC
:100A80008C30C1F4DFEF1FEF0FEFC0E3802F0E9427
:100A90004809812F0E9448098D2F0E944809C150A2
:100AA000A9F70E942908DF91CF911F910F91089516
:100AB000863041F0D0E010E000E0E7CFDFEF10E05B
:100AC00000E0E3CFD0E010E00FEFDFCFD0E01FEF8A
:100AD00000E0DBCF1F93DF93CF930F92CDB7DEB74C
:100AE000182F80E090E069830E9484240E947F2474
:100AF000698170E00E94BF22810F0F90CF91DF913A
:100B00001F910895269A2E988FEF94E3ACE08150C0
:100B10009040A040E1F700C000002E9A8FEF94E3D0
:100B2000ACE081509040A040E1F700C000002E985A
:100B30002E9A89E190E00E94A908789485E893E0D4
:100B40000E9410091092D6021092D7021092D80279
:100B50001092D9021092DA020895E82FF0E0EA52DA
:100B6000FD4F8081869511F48BE0808308958091FC
:100B7000D602869519F18150880F8093D602809114
:100B8000D702869509F18150880F8093D702809112
:100B9000D8028695F9F08150880F8093D802809111
:100BA000D9028695E9F08150880F8093D90280910F
:100BB000DA028695D9F41092DA0208951092D602DC
:100BC0008091D7028695F9F61092D7028091D802CB
:100BD000869509F71092D8028091D902869519F767
:100BE0001092D9028091DA02869529F38150880FFC
:100BF0008093DA020895E82FF0E0EA52FD4F8081F9
:100C000080FF03C0108281E0089580E008959091F4
:100C1000D602969591F19150990F9093D6029091AA
:100C2000D702969581F19150990F9093D7029091A8
:100C3000D802969571F19150990F9093D8029091A6
:100C4000D902969561F19150990F9093D9029091A4
:100C5000DA02969551F51092DA02833261F184320C
:100C600090F1843609F43FC0853608F445C08337D7
:100C700091F1873709F44FC008951092D6029091F0
:100C8000D702969581F61092D7029091D802969548
:100C900091F61092D8029091D9029695A1F61092F1
:100CA000D9029091DA029695B1F29150990F9093F2
:100CB000DA028332A1F68091DA028695E9F68BE0BA
:100CC0008093DA0208958D3171F08E3108F18E3102
:100CD00011F18F3189F68091D702869569F68BE004
:100CE0008093D70208958091D902869509F0C4CFE8
:100CF0008BE08093D9020895813609F0BDCF8091B1
:100D0000D802869509F0B8CF8BE08093D802089579
:100D10008C31A9F308958091D602869509F0ACCF65
:100D20008BE08093D6020895DF93CF9300D0CDB7A8
:100D3000DEB780911A0890911B08009759F09E0128
:100D40002F5F3F4F281B390BC9010F900F90CF9198
:100D5000DF9108958EE198E0F2CFFF920F931F93F9
:100D6000DF93CF93CDB7DEB72C970FB6F894DEBFE5
:100D70000FBECDBF0E942D09009789F480E2F82EA6
:100D80008F2D0E9407062C960FB6F894DEBF0FBE7B
:100D9000CDBFCF91DF911F910F91FF9008950E94D9
:100DA000C208F82E0E94DE082F2D30E0235230407A
:100DB0002635310528F72C5C3F4FF901EE0FFF1F58
:100DC0000590F491E02D09948091C60281508093A2
:100DD000C602D6CF0E94171386E00E940A1386E649
:100DE00091E00E941009CCCF85E00E940A1384E1B3
:100DF00091E00E941009C4CF87E00E940A1383E5A6
:100E000091E00E941009BCCF1092C6021092C70256
:100E10001092C8028AE00E940A1388E791E00E94BB
:100E20001009AECF0E944E0983E00E940A1389E3A5
:100E300091E00E941009A4CF8091C7028150809355
:100E4000C7029ECF81E00E940A1388EA91E00E94C7
:100E5000100996CF8AEC91E00E94100991CF809101
:100E6000C80281508093C8028BCF89EE91E00E9426
:100E7000100986CF8091C6028F5F8093C60280CF13
:100E80008091C7028F5F8093C7027ACF8091C8029A
:100E90008F5F8093C80274CF89E793E00E941009A6
:100EA00088E493E00E9410098FE393E00E94100908
:100EB00081E393E00E94100984E293E00E9410090C
:100EC00088E093E00E94100986EE92E00E941009EB
:100ED00084EC92E00E94100983EB92E00E941009DA
:100EE00081EA92E00E94100983E892E00E941009D2
:100EF0008DE692E00E94100982E692E00E941009BD
:100F00008CE492E00E94100987E392E00E941009AD
:100F100087E292E00E94100980911A0890911B08C4
:100F2000009709F443C09C018E010D5F1F4FCE0155
:100F30000196821B930BB8014AE050E00E948F2477
:100F4000C8010E94F30880E292E00E94100985E047
:100F500092E00E9410098091520290E0B8014AE0AC
:100F600050E00E948F24C8010E94F30809CF89EB4A
:100F700091E00E94100904CF88EF91E00E941009CF
:100F8000FFCE89E00E940A138BE991E00E941009CC
:100F9000F7CE84E00E940A1387E291E00E941009D4
:100FA000EFCE8AED91E00E941009EACE2EE138E002
:100FB000BBCF2198199A53988BB18C608BB98AE07A
:100FC00080936900089581E0199980E00895E19A7D
:100FD00083E08DBB0895E99808951F920F920FB694
:100FE0000F9211248F9381E080935402E998E09A44
:100FF0008F910F900FBE0F901F9018951F920F9218
:101000000FB60F9211248F93E99881E080935402D8
:10101000E19A8F910F900FBE0F901F9018950E942C
:10102000D9071092540281E080936301089581E012
:10103000809363010E94E7070895109263010E9464
:10104000EB0708950E94E307089581E08093DD0295
:10105000089584EB9FEF909385008093840081E056
:1010600080936F0083E0809381001092DD020895E9
:101070001F920F920FB60F9211248F93109281003E
:1010800081E08093DD022E9907C02E9A8F910F90F8
:101090000FBE0F901F9018952E988F910F900FBE36
:1010A0000F901F9018951F920F920FB60F92112458
:1010B0002F938F939F93EF93FF932091C000909174
:1010C000C600E0915602EF5FEF7380915502E8177A
:1010D000A1F0822F8871E0935602F0E0E758FD4FAF
:1010E00090838093B902FF91EF919F918F912F91FF
:1010F0000F900FBE0F901F90189582E0F2CF1F92B5
:101100000F920FB60F9211248F939F93EF93FF933B
:1011100090915702809158029817A9F0E0915802D7
:10112000EF5FEF71E0935802F0E0E75AFD4F8081E6
:101130008093C600FF91EF919F918F910F900FBE0A
:101140000F901F9018958091C1008F7D8093C100F2
:10115000F1CF10925702109258021092560210923C
:10116000550297FF04C022E02093C0009F77909320
:10117000C5008093C40088E98093C10086E0809315
:10118000C20008959091560280915502981791F0EF
:10119000E0915502EF5FEF73E0935502F0E0E758FE
:1011A000FD4F80819091B902392F20E0280F311D29
:1011B000C901089520E031E0C90108952091570246
:1011C0002F5F2F71909158022917E1F3E22FF0E081
:1011D000E75AFD4F8083209357028091C1008062BF
:1011E0008093C1000895DC012C912223C1F0119657
:1011F000909157029F5F9F71809158029817E1F379
:10120000E92FF0E0E75AFD4F208390935702809139
:10121000C10080628093C1002D91222349F7089577
:10122000FC0124912223C1F03196909157029F5FD7
:101230009F71809158029817E1F3A92FB0E0A75A47
:10124000BD4F2C93909357028091C1008062809390
:10125000C1002491222341F70895809156022091E4
:10126000550290E0CF96821B91096FE370E00E94D7
:10127000BF2208958091550280935602089584B14B
:101280008C6284B980E58CBD81E08DBD1EBC089563
:101290000DB407FEFDCF8EBD8EB508951092BA0233
:1012A00008950F931F93CF93DF9382EE92E0909374
:1012B000E1028093E00282E295E09093DF02809366
:1012C000DE0260E070E0C4E6D0E0A1E0B0E0862F8E
:1012D00086958695869590E08C9FA0018D9F500DF8
:1012E0009C9F500D1124CB01877090709D0102C00E
:1012F000220F331F8A95E2F7022F009580E090E0DD
:101300009C01240F351FE091E002F091E102E20F11
:10131000F31F108110231083E091DE02F091DF02B1
:10132000E20FF31F20812023208301968033910553
:1013300039F76F5F7F4F6436710549F6E091E0023F
:10134000F091E102828188608283E091E002F09175
:10135000E102838180618383E091E002F091E10208
:10136000848180618483E091E002F091E1028481D4
:1013700088608483E091E002F091E10284818460DE
:101380008483E091E002F091E102E25FFD4F808111
:1013900081608083E091E002F091E102E35FFD4F24
:1013A000808182608083E091E002F091E102E25F5F
:1013B000FD4F808182608083E091E002F091E10244
:1013C000E15FFD4F808182608083E091E002F091D7
:1013D000E102E35FFD4F80818460808381E0809340
:1013E000BA02DF91CF911F910F910895A62FA69574
:1013F000A695A695B0E024E630E0A29FF001A39F59
:10140000F00DB29FF00D1124E40FF11DE80FF91F4C
:10141000677081E090E002C0880F991F6A95E2F73B
:10142000208182230895E62FE695E695E69524E649
:10143000E29FF0011124E40FF11DE80FF91F67701E
:1014400081E090E002C0880F991F6A95E2F7208141
:10145000282B20830895E62FE695E695E69524E669
:10146000E29FF0011124E40FF11DE80FF91F6770EE
:1014700081E090E002C0880F991F6A95E2F780959D
:1014800090819823908308958F929F92AF92BF92FC
:10149000DF92EF92FF920F931F93CF93DF93E09031
:1014A000E002F090E102062F10E0E82FE695E695C5
:1014B000E69594E6E99F40011124800E911E282FA5
:1014C00030E067E0A62EB12CA222B3228E0C9F1C26
:1014D00081E090E00A2C02C0880F991F0A94E2F77D
:1014E000F401D080D8228091BB029091BC02A091DF
:1014F000BD02B091BE020196A11DB11D8093BB0239
:101500009093BC02A093BD02B093BE02C9010197A3
:10151000BC0197FD9FC07595679575956795759505
:10152000679544E650E0649FE001659FD00D749F8D
:10153000D00D1124C00FD11F68E070E00E94BF22BF
:10154000CE0DDF1DDE0111974C9150E0082E02C038
:10155000559547950A94E2F7942F9170D40111970D
:101560004C9150E00A2C02C0559547950A94E2F739
:1015700040FD9F5F2F5F3F4FB9017595679575954A
:1015800067957595679544E650E0649FD001659F27
:10159000B00D749FB00D1124A00FB11F27703070D3
:1015A000AE0DBF1DAD0141505040FA01408150E0E9
:1015B000022E02C0559547950A94E2F740FD9F5FC1
:1015C000488150E0082E02C0559547950A94E2F7ED
:1015D00040FD9F5F4C9150E0022E02C0559547950B
:1015E0000A94E2F740FD9F5F498150E002C05595A3
:1015F00047958A95E2F740FD9F5FF401418150E0F5
:1016000002C055954795AA94E2F740FD9F5F119659
:101610004C91119750E002C0559547952A95E2F7F5
:1016200040FD9F5FDD2081F481E0933009F080E090
:10163000DF91CF911F910F91FF90EF90DF90BF90BE
:10164000AF909F908F900895923088F381E094300E
:1016500078F3EDCFB9016A5F7F4F5DCF8F929F9294
:10166000AF92BF92CF92DF92EF92FF920F931F93B0
:10167000CF93DF93A82E882309F051C08091BA023E
:10168000882309F4C6C01092BB021092BC021092CB
:10169000BD021092BE028091BF028F5F8093BF0295
:1016A000863009F4B9C0A091E002B091E102CC24E7
:1016B000DD2400E010E021E030E002C0220F331F03
:1016C000CA94E2F7A00FB11FEAE6F7E040E808C0CD
:1016D000108241831282339687E0EA3FF80771F067
:1016E0008D9190E082239323009791F710821182CD
:1016F0001282339687E0EA3FF80791F78AE697E08F
:101700000E948D04DF91CF911F910F91FF90EF9078
:10171000DF90CF90BF90AF909F908F900895809171
:10172000BF0241E0882309F460C090E09C01215091
:101730003040B22EBB0CBB0CBB0CB40ECB2DD0E09A
:10174000E42EFF24880F991F880F991F880F991F77
:101750008E0D9F1DC817D9070CF049C00A2D06959C
:101760000695069584E6089F80011124CA2CDD2485
:1017700087E0C822DD2481E090E00C2C02C0880FB5
:10178000991F0A94E2F7982E882E80941CC0C00FEF
:10179000D11FE091DE02F091DF02EC0FFD1F80818E
:1017A00089298083B394CB2DD0E02091BF0230E013
:1017B000220F331F220F331F220F331F2E0D3F1D09
:1017C000C217D3070CF58A2D6B2D0E94440A88237B
:1017D000F1F6C00FD11FE091DE02F091DF02EC0FB5
:1017E000FD1F808188218083DDCF40E09ECF0A2DC0
:1017F00006950695069584E6089F80011124CA2C5B
:10180000DD2487E0C822DD24A091E002B091E1024E
:1018100052CF0E94510937CF1092BF028091E0024F
:101820009091E1029093630780936207A091DE029A
:10183000B091DF02B093E102A093E0029093DF0247
:101840008093DE0234CF80E00E94FB05882371F094
:1018500082E08093680790916407892F82508A30D4
:1018600008F58AE08093640781E008952091680775
:10187000215020936807822F992787FD9095909596
:1018800081959F4F833091059CF08EEF8093680780
:1018900090916407892F8E5F863290F4891710F734
:1018A00082E008959817E8F28093640781E0089534
:1018B00090916407892F821B12168CF2863270F386
:1018C00082E00895E091C402F091C502818190E028
:1018D0002091640730E0AC01475F5F4F4217530728
:1018E00084F42E5F3F4F4281BC01640F711DAB0138
:1018F000465F5F4F81E0241735070CF0089580E0C4
:10190000089581E008951F93DF93CF9300D0CDB762
:10191000DEB7182F85E090E04A8369830E94082390
:10192000FC011083698161834A814283148213829E
:101930000F900F90CF91DF911F9108952F923F92BA
:101940004F925F926F927F928F929F92AF92BF92CF
:10195000CF92DF92EF92FF920F931F93CF93DF937B
:10196000EC01009709F453C00B811C81011511058E
:1019700009F44AC0F801E380F480E114F10409F4A9
:1019800040C0F701C380D480C114D104B9F1F6017D
:10199000A380B480A114B10471F1F5018380948017
:1019A0008114910429F1F40163807480611471043D
:1019B000E1F0F301438054804114510499F0F201A5
:1019C000238034802114310451F0F101838194810A
:1019D000009711F00E949E0CC1010E94A223C20137
:1019E0000E94A223C3010E94A223C4010E94A22339
:1019F000C5010E94A223C6010E94A223C7010E9422
:101A0000A223C8010E94A223CE010E94A223DF913B
:101A1000CF911F910F91FF90EF90DF90CF90BF90EB
:101A2000AF909F908F907F906F905F904F903F907E
:101A30002F9008950F931F93DF93CF9300D00F92B1
:101A4000CDB7DEB71092C3021092C2021092C0024C
:101A500081E08093C1028AE08093640782E08093F2
:101A600068070091C4021091C5020115110551F0DB
:101A7000F80183819481009711F00E949E0CC801A7
:101A80000E94A2231092C5021092C40280E062E17B
:101A90000E946A05082F89E069E00E946A05182FF4
:101AA00085E090E00E940823FC018CE380830183A1
:101AB000128314821382F093C502E093C40281E082
:101AC0000E94A42169837A838B83A5E6B7E0FE0197
:101AD000319683E001900D928150E1F70F900F90C5
:101AE0000F90CF91DF911F910F910895EF92FF9288
:101AF0000F931F93CF93DF93E091C402F091C5023F
:101B00006081162F1150862F8850863008F44CC003
:101B1000112309F05DC001E0C381D48114821382D6
:101B2000309719F0CF010E94A223D093C502C09331
:101B3000C40218811150FE011083C381D481209703
:101B400011F44DC0E9011881115018832B813C819B
:101B500021153105B9F7212F30E0295E3F4F8091E3
:101B6000520290E028173907BCF480E062E10E943D
:101B70006A05F82E89E069E00E946A05E82E85E092
:101B800090E00E940823FC01185E1083F182E2823B
:101B9000148213829C838B83802FDF91CF911F91BE
:101BA0000F91FF90EF900895818190E0209164075C
:101BB00030E0AC01475F5F4F421753075CF42E5F84
:101BC0003F4F4281840F911D0A962817390714F45C
:101BD00001E001C002E0611708F0AECF9DCFEF0138
:101BE000BACF0F931F93CF93DF93082F0A506091C2
:101BF0006407162F262F30E0C90117C0A901481B22
:101C0000590B4130510509F444C04230510509F4E3
:101C100049C01F5F862F90E0212F30E0AC014E5F5E
:101C20005F4F421753070CF446C00130E9F0013012
:101C300028F3023071F7A901481B590BCA0100971C
:101C400041F14130510529F7E901CC0FDD1FC20FE9
:101C5000D31FC659D84F86E00E94A4216883798398
:101C60008A8360916407D5CFA901481B590BCA012B
:101C70004130510529F042305105A1F0009749F655
:101C8000E901CC0FDD1FC20FD31FC659D84F89E021
:101C9000E3CFE901CC0FDD1FC20FD31FC659D84FC8
:101CA0008CE0DACFE901CC0FDD1FC20FD31FC6597C
:101CB000D84F8FE0D1CFDF91CF911F910F91089531
:101CC000DF92EF92FF920F931F93DF93CF93CDB7E5
:101CD000DEB72B970FB6F894DEBF0FBECDBFD82E60
:101CE00084E00E94A4216F83788789878E010F5F2B
:101CF0001F4FD80187E0E82EF12CEC0EFD1EF701F6
:101D000083E001900D928150E1F78DE00E94A421C3
:101D10006F83788789879E012C5F3F4FD901F70138
:101D200083E001900D928150E1F764E02A873B87C0
:101D30000E946A058D5D4AE657E090E03B852A8562
:101D4000981708F089C0DA01F80163E001900D925C
:101D50006150E1F79F5F4D5F5F4F903389F72091AE
:101D6000C4023091C5022115310509F45CC04D2D26
:101D700050E063E009C0D90113962D913C9114976E
:101D80002115310509F44FC0D9017C91D71698F37C
:101D9000872F90E00396841795076CF3D71609F404
:101DA00069C08417950709F465C0F9010181063FF0
:101DB000C1F0075F069F800111240359184F8AE67E
:101DC00097E0DC01E5E6F7E073E001900D927150D9
:101DD000E1F7039680179107A1F7D90111960C91AD
:101DE0001197F9017281700F765F703320F6872F9B
:101DF00090E0FC01EE0FFF1FE80FF91FE659F84FC6
:101E0000A5E6B7E083E00D9001928150E1F77F5F96
:101E1000703369F7D90113962D913C9114972115D0
:101E2000310509F0B1CF8D2D8A50833018F48D2DF6
:101E30000E94F10D8AE697E00E948D042B960FB662
:101E4000F894DEBF0FBECDBFCF91DF911F910F91F0
:101E5000FF90EF90DF900895DA01F90163E00190BF
:101E60000D926150E1F79F5F4D5F5F4F903309F036
:101E700067CF75CFD9011196EC9111970E2F065FA0
:101E80007E2F775F872F90E010E00450104080177E
:101E90009107BCF0FC01EE0FFF1FE80FF91FE65998
:101EA000F84FA5E6B7E083E00D9001928150E1F78D
:101EB0007150872F90E08017910764F7D901119630
:101EC000EC91D90112967C91765F7E0F872F90E07E
:101ED0008C010D5F1F4FFC01EE0FFF1FE80FF91F74
:101EE000E659F84FA5E6B7E083E00D9001928150E6
:101EF000E1F77F5F872F90E00817190764F73BCF62
:101F0000FF920F931F93DF93CF9300D00F92CDB723
:101F1000DEB7F82E8823A1F08091C0029091C10213
:101F20009130B9F08A30C9F18F2D0E94600E0F9068
:101F30000F900F90CF91DF911F910F91FF90089517
:101F40008091C0028F5F8093C0029091C102913056
:101F500049F7882349F380E00E94FB05882309F4B0
:101F60006AC082E08093680790916407892F82504D
:101F70008A3008F07DC08AE08093640781E0809316
:101F8000C1020E94760D823009F47DC08091C102A9
:101F90008093C1021092C002C7CF1092C302109268
:101FA000C2021092C00291E09093C1028093640734
:101FB00082E0809368070091C4021091C502011568
:101FC000110561F0F801238134812115310519F0E3
:101FD000C9010E949E0CC8010E94A2231092C50252
:101FE0001092C40280E062E10E946A05082F89E035
:101FF00069E00E946A05182F85E090E00E9408239E
:10200000FC018CE380830183128314821382F0939A
:10201000C502E093C40281E00E94A42169837A830F
:102020008B83A5E6B7E0FE01319683E001900D9227
:102030008150E1F779CF20916807215020936807FC
:10204000822F992787FD9095909581959F4F83309A
:10205000910594F08EEF8093680790916407892F23
:102060008E5F863218F4891708F086CF82E087CF1A
:10207000981708F480CF80CF90916407892F821B36
:1020800012167CF775CF82E083CF1F93CF93DF9337
:10209000C091C402D091C502209709F451C0482FC5
:1020A00050E093E006C00B80DC81C02D209709F43E
:1020B00047C068818617B8F3262F30E02D5F3F4F69
:1020C0002417350784F3681709F43EC02417350731
:1020D000D9F16981663FB1F02AE637E0675F699F11
:1020E000B00111246359784FD901E5E6F7E013E018
:1020F00001900D921150E1F72D5F3F4F26173707E2
:1021000099F769817A81760F765F703360F6272FB1
:1021100030E0F901EE0FFF1FE20FF31FE659F84F11
:10212000A5E6B7E023E00D9001922150E1F77F5F33
:10213000703369F70B80DC81C02D209709F0B9CF8F
:10214000DF91CF911F910895E9816E2F665F1E2F59
:10215000175F212F30E070E064507040261737077A
:10216000ACF0F901EE0FFF1FE20FF31FE659F84F35
:10217000A5E6B7E023E00D9001922150E1F7115060
:10218000212F30E02617370764F7E9811A81165F9F
:102190001E0F212F30E0B9016D5F7F4FF901EE0F67
:1021A000FF1FE20FF31FE659F84FA5E6B7E023E063
:1021B0000D9001922150E1F71F5F212F30E062174F
:1021C000730764F770CFCF93DF93EB012881281753
:1021D000D9F190E030E02D5F3F4F82179307A1F1D6
:1021E0003981363FB1F08AE697E0375F43E0349FAC
:1021F000900111242359384FDC01E5E6F7E043E074
:1022000001900D924150E1F7039682179307A1F7D1
:1022100039812A81230F265F203398F4822F90E0A2
:10222000FC01EE0FFF1FE80FF91FE659F84FA5E676
:10223000B7E083E00D9001928150E1F72F5F2033EA
:1022400069F7DF91CF9108955981252F265F452F9A
:10225000475F842F90E030E024503040821793078E
:10226000ACF0FC01EE0FFF1FE80FF91FE659F84F25
:10227000A5E6B7E083E00D9001928150E1F741506F
:10228000842F90E08217930764F759814A81465F53
:10229000450F842F90E09C012D5F3F4FFC01EE0F16
:1022A000FF1FE80FF91FE659F84FA5E6B7E083E0F6
:1022B0000D9001928150E1F74F5F842F90E0281735
:1022C000390764F7DF91CF9108958091C202909110
:1022D000C302089508958230C9F0833040F08430FD
:1022E000C9F0843068F48EE00E9432050895882396
:1022F00021F486E00E94320508958130A1F308950B
:102300008530E9F78EE00E943205089588E00E944A
:102310003205089587E00E9432050895EF92FF92FA
:102320000F931F93DF93CF9300D00F92CDB7DEB7FB
:10233000E82F882371F54091C9024F5F4093C9028D
:10234000609152028FEF90E070E00E94BF22E69F02
:10235000802D1124840F6FEF4FE09E012F5F3F4FC0
:102360008E010E5F1F4F93E0E92EF12CEC0EFD1E47
:102370000E94122289816A814B810E9414050F906C
:102380000F900F90CF91DF911F910F91FF90EF90E1
:1023900008954091C902D4CF2091C6029091C702FE
:1023A0008091C802EAE6F7E0208391838283339626
:1023B00037E0EA3FF307C1F78AE697E00E948D0411
:1023C00008959091CA02809152029817E9F09F5F98
:1023D0009093CA02EAE6F7E080E022E307C01082A9
:1023E000118212828F5F3396803349F08917B9F7D3
:1023F0002083118212828F5F33968033B9F78AE689
:1024000097E00E948D04089591E0E2CFBF92CF92B1
:10241000DF92EF92FF920F931F93DF93CF9300D041
:102420000F92CDB7DEB7F82E19828FEF8A831B8209
:1024300084E00E94FB05882369F0E0916601F0E0EA
:10244000EE0FFF1FE959FE4F808191819093650146
:102450008093640180E00E94FB05882359F09091ED
:102460006601892F815009F08CC0809169078150E5
:102470008093660181E00E94FB05882309F06BC010
:102480004091660180916907423008F480C0B42E03
:10249000BA94242F30E090E00197281739070CF008
:1024A00056C04F5FC42EDD24EAE6F7E010821182A9
:1024B0001282339687E0EA3FF807C1F78EE360E0C7
:1024C00046E109811A812B81EF2C0E94481EE09180
:1024D0006601F0E0EE0FFF1FE358FE4F808191810F
:1024E00066E046E109811A812B810E943A1F84E649
:1024F0008A83EB2DF0E0EE0FFF1FE358FE4F808143
:10250000918160E04DE0098114E62B810E943A1F21
:10251000F601EE0FFF1FE358FE4F8081918160E0CE
:102520004FE109811A812B810E943A1F8AE697E0C8
:102530000E948D040F900F900F90CF91DF911F910B
:102540000F91FF90EF90DF90CF90BF90089551E0F2
:10255000C52ED12CA9CF90916601492F4F5F809154
:102560006907481748F091E09093660121E030E058
:1025700041E0B82EBA948FCF4917A8F34093660173
:1025800083CF981708F471CF8093660173CF242FFF
:1025900030E0EFCF8BE08093690789E0809366019C
:1025A00086E092E190936501809364010E94171385
:1025B0000E947D1A0E941A0D1092C6021092C70244
:1025C0001092C80208951F93CF93DF93182FC6E08F
:1025D000D2E1E0916401F0916501EC17FD0751F043
:1025E00084E00E94FB05882359F0D0936501C093D5
:1025F0006401FE01812F0995DF91CF911F9108950C
:10260000E0916401F0916501812F0995DF91CF91EF
:102610001F910895E82FF0E0EE0FFF1FE959FE4FDC
:1026200080819181909365018093640108950F9357
:102630001F93DF93CF9300D00F92CDB7DEB7809179
:1026400052028695809300088093FD0788E180936D
:1026500001088093090881E18093FF0784E180935A
:10266000FE071092CC021092CB0210920208109238
:10267000930180E00E94A42169837A838B83A3E085
:10268000B8E08E010F5F1F4FF80183E001900D92BB
:102690008150E1F781E00E94A42169837A838B83D2
:1026A000AAEFB7E0F80183E001900D928150E1F7C5
:1026B00085E00E94A42169837A838B83A6E0B8E039
:1026C000F80183E001900D928150E1F70F900F9097
:1026D0000F90CF91DF911F910F9108958091CB02C0
:1026E0009091CC0208950F931F93DF93CF9300D066
:1026F0000F92CDB7DEB78091FF0783FF8EC0209188
:102700000108982F9770322F391B3093090823172F
:1027100018F03A3008F035C19AE090930108877FAD
:102720008093FF0781E00E94A42169837A838B83D1
:10273000A6E0B8E08E010F5F1F4FF80183E0019023
:102740000D928150E1F76091FF0767FD8DC02091E8
:102750000008862F90E080779070959587959595E5
:1027600087959595879595958795820F8093FD0719
:10277000821748F04091520250E0282F30E0241791
:1027800035070CF4EDC070910908E091FE077E1743
:1027900008F4C0C08E2F90E0272F30E0AC01495FD5
:1027A0005F4F421753070CF4B5C04091CB025091D4
:1027B000CC024F5F5F4F5093CC024093CB02281B5B
:1027C000390B253031050CF0B5C09E2F9C5F971B4F
:1027D000686080915202815080930008933008F025
:1027E00092E0687F692B6F7860696093FF0788E0EB
:1027F0000E94A42169837A838B83AAEFB7E0F80152
:1028000083E001900D928150E1F70F900F900F90AF
:10281000CF91DF911F910F91089520910108982F7A
:102820009770920F90930908921718F0963208F457
:10283000BCC095E29093010888608093FF0781E017
:102840000E94A42169837A838B83A6E0B8E08E017D
:102850000F5F1F4FF80183E001900D928150E1F767
:102860006091FF0767FF73CF20910008862F90E0EB
:10287000807790709595879595958795959587958F
:1028800095958795322F381B3093FD07231708F055
:1028900056C070910908E091FE077E1708F49BC0AE
:1028A0008E2F90E0272F30E0AC01495F5F4F421739
:1028B00053070CF490C04091CB025091CC024F5F73
:1028C0005F4F5093CC024093CB02281B390B25302D
:1028D00031050CF090C08E2F8C5F871B686091E0F3
:1028E00090930008833008F082E0687F682B6F7057
:1028F00060616093FF0788E00E94A42169837A8366
:102900008B83AAEFB7E0F80183E001900D9281502C
:10291000E1F77BCF86E00E94A42169837A838B83D1
:10292000AAEFB7E0F80183E001900D928150E1F742
:1029300081E06BCF972F94509E1B677F4ACF3093D7
:10294000000881E00E94A42169837A838B83AAEF27
:10295000B7E0F80183E001900D928150E1F755CF87
:102960008093000881E00E94A42169837A838B838D
:10297000AAEFB7E0F80183E001900D928150E1F7F2
:1029800044CF3093010885E00E94A42169837A83B3
:102990008B83A6E0B8E08E010F5F1F4FF80183E044
:1029A00001900D928150E1F7CECE85E00E94A421E6
:1029B00069837A838B83A6E0B8E08E010F5F1F4F97
:1029C000F80183E001900D928150E1F780910908B0
:1029D00080930108B8CE86E00E94A42169837A839F
:1029E0008B83AAEFB7E0F80183E001900D9281504C
:1029F000E1F781E00ACF872F84508E1B677F6FCF6E
:102A0000CF92DF92EF92FF920F931F93DF93CF93BA
:102A100000D000D00F92CDB7DEB7D82E882309F4AE
:102A200022C18091020890919301992309F0A2C0DC
:102A3000882309F04CC180E00E94FB05882361F0E7
:102A40009091FE07892F82508A3008F45FC1981751
:102A500008F45CC18093FE0781E00E94FB05882397
:102A600069F08091FE07982F965F963208F058C162
:102A7000981708F455C18E5F8093FE072AE637E069
:102A800000E010E01BC07801EE0CFF1CE00EF11E10
:102A90008AE697E0E80EF91E8EE02C833D830E94C3
:102AA000A421F7016083718382833D812C810F5FB4
:102AB0001F4F2D5F3F4F0033110599F00A3011F081
:102AC000053209F7D901E6E0F8E083E001900D92C4
:102AD0008150E1F70F5F1F4F2D5F3F4F003311050E
:102AE00069F76091CB027091CC0280E090E0409158
:102AF000520246954695469526E1E090FA07F090F9
:102B0000FB070091FC07CD2C0E94B720DD20D9F4F3
:102B10004091FE07842F90E09C01295F3F4FFC010C
:102B2000EE0FFF1FE80FF91FE659F84FAAEFB7E0C5
:102B300083E00D9001928150E1F74F5F842F90E088
:102B40002817390764F780910008D81609F4CCC01B
:102B50008AE697E00E948D040F900F900F900F90DF
:102B60000F90CF91DF911F910F91FF90EF90DF9029
:102B7000CF90089580FF7DC081E00E94A4216983E9
:102B80007A838B83A6E0B8E08E010F5F1F4FF801B8
:102B900083E001900D928150E1F786E00E94A4212C
:102BA00069837A838B83AAEFB7E0F80183E0019011
:102BB0000D928150E1F788E00E94A42169837A8315
:102BC0008B83A3E0B8E0F80183E001900D9281507F
:102BD000E1F7809102088A3009F050CF80915202CB
:102BE0008695809300088093FD0788E18093010813
:102BF0008093090881E18093FF0784E18093FE07B9
:102C00001092CC021092CB02109202081092930103
:102C100080E00E94A42169837A838B83A3E0B8E0DB
:102C2000F80183E001900D928150E1F781E00E946C
:102C3000A42169837A838B83AAEFB7E0F80183E04C
:102C400001900D928150E1F785E00E94A4216983F3
:102C50007A838B83A6E0B8E0F80183E001900D92BF
:102C60008150E1F70BCF809102088F5F80930208BB
:102C7000DACE85E00E94A42169837A838B83A6E063
:102C8000B8E08E010F5F1F4FF80183E001900D92B5
:102C90008150E1F781E00E94A42169837A838B83CC
:102CA000AAEFB7E0F80183E001900D928150E1F7BF
:102CB00086E00E94A42169837A838B83A3E0B8E035
:102CC000F80183E001900D928150E1F782CF0E94DC
:102CD0007313809393011092020880E00E94FB0519
:102CE000882309F4B9CEACCE8091010890E0FC01B4
:102CF000EE0FFF1FE80FF91FE659F84FA3E0B8E009
:102D000083E00D9001928150E1F722CF8AE0809319
:102D1000FE0781E00E94FB05882309F0A2CEAECE1B
:102D20008EE18093FE07AACE609109087091FE079C
:102D3000671760F1872F90E0262F30E0AC01495FE4
:102D40005F4F4217530704F14091CB025091CC02E0
:102D50004F5F5F4F5093CC024093CB02281B390B3F
:102D600025303105ACF4972F9C5F961B8091FF07AF
:102D70008860933008F092E0887F892B8F7880619B
:102D80008093FF0781E0089580E0089580E0089532
:102D9000962F9450971B8091FF07877FEACF80E0A2
:102DA0000E94FB05882349F09091FE07892F8250ED
:102DB0008A30A0F48AE08093FE0781E00E94FB0540
:102DC000882359F08091FE07982F965F963258F429
:102DD000981748F08E5F8093FE070895981750F378
:102DE0008093FE07EACF8EE18093FE070895CF928D
:102DF000DF92EF92FF920F931F93DF93CF9300D058
:102E0000CDB7DEB7D82E2AE637E0EE24FF241BC06C
:102E10008701000F111F0E0D1F1D0659184F8EE060
:102E200029833A830E94A421F801608371838283FD
:102E30003A8129810894E11CF11C2D5F3F4FF0E39A
:102E4000EF16F10471F08E2D8A3011F0853201F702
:102E5000D901E6E0F8E083E001900D928150E1F7BE
:102E6000E9CF6091CB027091CC0280E090E040917C
:102E7000520246954695469526E1E090FA07F09075
:102E8000FB070091FC07CD2C0E94B720DD20D9F470
:102E90004091FE07842F90E09C01295F3F4FFC0189
:102EA000EE0FFF1FE80FF91FE659F84FAAEFB7E042
:102EB00083E00D9001928150E1F74F5F842F90E005
:102EC0002817390764F780910008D81679F08AE648
:102ED00097E00E948D040F900F90CF91DF911F918A
:102EE0000F91FF90EF90DF90CF90089580910108AF
:102EF00090E0FC01EE0FFF1FE80FF91FE659F84FB5
:102F0000A3E0B8E083E00D9001928150E1F7DFCFBC
:102F100080910C0890910D080895EF92FF920F9305
:102F20001F93DF93CF930F92CDB7DEB7E090CD0222
:102F3000F090CE02D7013C9130930E0811962C915F
:102F400011972093160880910B0890E08F70907075
:102F50008230910509F4EFC0833091050CF091C0E7
:102F60008130910509F4C7C0F7018081922F40910B
:102F70000A08431709F4A1C040E0F701308390919B
:102F8000160891830280F381E02D309709F421C166
:102F90007F0103C07C01212F802FD7010C91119656
:102FA0001C9111978C9311962C93119712968D91D9
:102FB0009C911397009771F7442309F441C08091C5
:102FC0000C0890910D08019690930D0880930C08C1
:102FD00020911908213508F4DCC011E060915202FB
:102FE000662309F478C0615080E00E946A058093EE
:102FF0000A088AE065E20E946A0580931808A09199
:10300000CD02B091CE0220910A089C91921791F1C5
:10301000FD010280F381E02D309761F01123F1F280
:103020009081291709F450C011E00280F381E02D4E
:103030003097A1F7112391F21296ED91FC9113971D
:1030400090910E082091160803C00280F381E02DB4
:10305000309709F447C080818917B9F781818217B9
:10306000A1F781E00F90CF91DF911F910F91FF9019
:10307000EF90089511969C911197891749F610E0E9
:10308000C7CF8430910509F465C08830910509F0F7
:103090006BCF315030930E08D7018C91831708F015
:1030A00096C030915202315030930E088C91922F7D
:1030B00040910A08431709F05FCF41E0509118088A
:1030C000591709F059CF59CF11E09181891709F0AB
:1030D000A0CF10E09ECF80E06CE30E946A05809351
:1030E0000A0887CF80E00F90CF91DF911F910F9159
:1030F000FF90EF900895922F915090931608291702
:1031000008F05DC01092160884E080930B0880914F
:103110005202482F4695340F30930E08381708F4A2
:1031200062C0F7019081392F341B30930E08F701EC
:10313000808190E01CCF3F5F30930E08D7018C91C7
:10314000381708F03FC010920E08F7018081922FC7
:1031500030E00DCF922F9F5F90931608921768F57D
:103160008FE28093160881E080930B0880915202D1
:10317000482F4695340F30930E08381768F1F70141
:103180009081392F341B30930E08F70180819FE224
:10319000EECE84E090E029830E940823FC010083A6
:1031A000118313821282D70113969C938E931297E8
:1031B00029812F5F2093190810CF903388F6D7010B
:1031C0008C91D5CE90915202391708F0BCCF922F36
:1031D000CECE122F082FF0CED7018C91982F381712
:1031E00080F29FE2C4CED7018C91982F381708F453
:1031F0009ACF90E0BCCEE091CD02F091CE029091BA
:103200000E08209116080280F381E02D309741F0DE
:1032100080818917C1F781818217A9F781E008951C
:1032200080E0089580E00E94FB05882341F08091B2
:103230000B088F70843019F081E080930B0883E0D5
:103240000E94FB05882341F080910B088F70883025
:1032500019F082E080930B0881E00E94FB0588232F
:1032600041F080910B088F70813019F084E08093D9
:103270000B0882E00E94FB05882341F080910B0837
:103280008F70823019F088E080930B0808951F93A7
:10329000DF93CF930F92CDB7DEB7182F84E090E085
:1032A00069830E940823FC01108369816183138272
:1032B00012820F90CF91DF911F910895CF93C1E0BB
:1032C00060915202662379F1615080E00E946A05A4
:1032D00080930A088AE065E20E946A0580931808D4
:1032E000E091CD02F091CE0220910A0890819217D0
:1032F000A9F00280F381E02D309759F0CC2301F33F
:103300009081291751F0C1E00280F381E02D3097C0
:10331000A9F7CC23A9F2CF910895C1E09181891733
:1033200041F7C0E0E6CF80E06CE30E946A0580933D
:103330000A08D0CF2F923F924F925F926F927F9266
:103340008F929F92AF92BF92CF92DF92EF92FF92B5
:103350000F931F93CF93DF93EC01009709F453C0B1
:103360000A811B810115110509F44AC0F801E280A8
:10337000F380E114F10409F440C0F701C280D38066
:10338000C114D104B9F1F601A280B380A114B10433
:1033900071F1F501828093808114910429F1F40187
:1033A0006280738061147104E1F0F3014280538004
:1033B0004114510499F0F201228033802114310428
:1033C00051F0F10182819381009711F00E949A19C6
:1033D000C1010E94A223C2010E94A223C3010E9434
:1033E000A223C4010E94A223C5010E94A223C601F8
:1033F0000E94A223C7010E94A223C8010E94A22307
:10340000CE010E94A223DF91CF911F910F91FF90D7
:10341000EF90DF90CF90BF90AF909F908F907F9074
:103420006F905F904F903F902F900895EF92FF9292
:103430000F931F93CF93DF93C091CD02D091CE0213
:10344000209749F08A819B81009711F00E949A1978
:10345000CE010E94A223F0905202F69484E090E004
:103460000E9408238C01FC01F08288E1E82EE182B1
:103470001093CE020093CD0285E08093190884E07A
:1034800090E00E940823EC018F2D8F5F8883E982F2
:103490001B821A82F801D383C28384E090E00E94E9
:1034A00008238C018F2D8E5FF8018083E1821382C7
:1034B00012821B830A8384E090E00E940823EC01BF
:1034C0008F2D8D5F8883E9821B821A82F801D38356
:1034D000C28384E090E00E940823FC018F2D8C5F62
:1034E0008083E18213821282FB83EA83DF91CF9192
:1034F0001F910F91FF90EF900895BF92CF92DF92AE
:10350000EF92FF920F931F93DF93CF9300D00F9210
:10351000CDB7DEB710920D0810920C081092170864
:103520001092150888E080930B080091CD0210914D
:10353000CE020115110561F0D80112968D919C9172
:103540001397009711F00E949A19C8010E94A223B4
:10355000D0905202BD2CB69484E090E00E940823E3
:103560007C01FC01B08298E1C92EC182F092CE02AA
:10357000E092CD0285E08093190884E090E00E94FB
:1035800008238C018B2D8F5FD8018C931196CC92E0
:10359000119713961C921E921297F70113830283C0
:1035A00084E090E00E9408237C018B2D8E5FD70180
:1035B0008C931196CC92119713961C921E9212978F
:1035C000F801F382E28284E090E00E9408238C01FB
:1035D0008B2D8D5FD8018C931196CC9211971396F9
:1035E0001C921E921297F7011383028384E090E0ED
:1035F0000E940823FC018B2D8C5F8083C182138283
:103600001282D8011396FC93EE93129701E0DD200D
:1036100069F16D2D615080E00E946A0580930A086F
:103620008AE065E20E946A0580931808E091CD0265
:10363000F091CE0220910A0890819217F9F0028051
:10364000F381E02D309759F0002359F0908129172C
:10365000A1F001E00280F381E02D3097A9F700236B
:1036600091F4D090520200E0DD2099F680E06CE306
:103670000E946A0580930A08D3CF01E091818917DF
:10368000F1F600E0DCCF86E00E94A42169837A8312
:103690008B83AFE0B8E08E010F5F1F4FF80183E02E
:1036A00001900D928150E1F788E00E94A421698386
:1036B0007A838B83A2E1B8E0F80183E001900D9258
:1036C0008150E1F70F900F900F90CF91DF911F91F4
:1036D0000F91FF90EF90DF90CF90BF9008951F93D0
:1036E000DF93CF9300D000D000D0CDB7DEB7182F36
:1036F000882309F4B2C08091170890911508992386
:1037000009F0A5C0882309F0AEC080E00E94FB0547
:10371000882341F080910B088F70843019F081E08C
:1037200080930B0883E00E94FB05882341F0809181
:103730000B088F70883019F082E080930B0881E0CD
:103740000E94FB05882341F080910B088F70813027
:1037500019F084E080930B0882E00E94FB05882327
:1037600041F080910B088F70823019F088E08093CF
:103770000B088EE00E94A4216C837D838E83AE01B2
:103780004F5F5F4FDA01FE01349683E001900D92A6
:103790008150E1F72AE637E0D901FA0183E0019090
:1037A0000D928150E1F72D5F3F4F87E02A3F3807A8
:1037B00099F7E091CD02F091CE023097D1F180815E
:1037C000181709F45DC00280F381E02D3097E1F015
:1037D00080811817C1F7818190E0AC01440F551F1B
:1037E000480F591F4659584F8FE098E023E0DC01FD
:1037F0000D90CD01DA010D92AD012150C1F702808B
:10380000F381E02D309721F780910A08181789F489
:103810008091180890E0FC01EE0FFF1FE80FF91FE0
:10382000E659F84FA2E1B8E083E00D900192815093
:10383000E1F78AE697E00E948D0426960FB6F89489
:10384000DEBF0FBECDBFCF91DF911F9108958A30AB
:1038500009F08FCF0E947D1A8CCF809117088F5F5F
:10386000809317084ACF0E948D17809315081092F5
:10387000170880E00E94FB05882309F453CF4ACF44
:10388000818190E0AC01440F551F480F591F4659E4
:10389000584F8FE098E023E0DC010D90CD01DA0174
:1038A0000D92AD012150C1F78ECF1F93DF93CF93BF
:1038B00000D000D000D0CDB7DEB7182F8EE00E9428
:1038C000A4216C837D838E83AE014F5F5F4FDA014D
:1038D000FE01349683E001900D928150E1F72AE6D3
:1038E00037E0D901FA0183E001900D928150E1F7B0
:1038F0002D5F3F4F87E02A3F380799F7E091CD02CF
:10390000F091CE023097D1F18081811709F444C043
:103910000280F381E02D3097E1F080818117C1F7BB
:10392000818190E0AC01440F551F480F591F465943
:10393000584F8FE098E023E0DC010D90CD01DA01D3
:103940000D92AD012150C1F70280F381E02D309737
:1039500021F780910A08181789F48091180890E0DF
:10396000FC01EE0FFF1FE80FF91FE659F84FA2E127
:10397000B8E083E00D9001928150E1F78AE697E08C
:103980000E948D0426960FB6F894DEBF0FBECDBF01
:10399000CF91DF911F910895818190E0AC01440F98
:1039A000551F480F591F4659584F8FE098E023E0A4
:1039B000DC010D90CD01DA010D92AD012150C1F76E
:1039C000A7CFEF920F931F93DF93CF9300D00F9267
:1039D000CDB7DEB7E82E84E689831A821B82EAE639
:1039E000F7E0108211821282339687E0EA3FF807EF
:1039F000C1F78BE491E063E044E109811A812B81F6
:103A00000E943A1F8AE697E00E948D040F900F9063
:103A10000F90CF91DF911F910F91EF9008959091AA
:103A20005202891B805B282F30E02095309527704B
:103A3000307041E050E002C0440F551F2A95E2F774
:103A400086958695869590E0AAE6B7E020E80DC0B9
:103A50001C9211962C93119712961C9212970A960B
:103A6000139637E0AA3FB30799F0FC01EB56FC4FE1
:103A7000E491E42369F71C9211961C921197129617
:103A80001C9212970A96139637E0AA3FB30769F77C
:103A90008AE697E00E948D0408959AE0699FF001FC
:103AA0001124982F969596959695E90FF11DEB5652
:103AB000FC4FE491282F30E020953095277030702E
:103AC00081E090E002C0880F991F2A95E2F78E23CB
:103AD0000895FC01E60FF11D84910895982F9052EE
:103AE0009F3550F4E82FF0E0EE0FFF1FEC5AFE4F29
:103AF00020813181C901089520E030E0C901089595
:103B0000CF92DF92EF92FF920F931F93DF93CF93A9
:103B100000D00F92CDB7DEB709831A832B83262FEF
:103B200030E02D5F3F4FE0915202F0E02E173F074B
:103B30000CF0A2C050E04C3251050CF09DC0E61ACA
:103B4000FF2427E030E02E193F09E1E0F0E0BF015B
:103B500002C0660F771F2A95E2F79B0163E070E0D1
:103B60006E197F09DF0102C0AA0FBB1F6A95E2F739
:103B7000BD01FC01A491EA2FF0E0DF01A223B323F1
:103B80001097B1F06A01CC0CDD1CC40ED51EAAE65C
:103B9000B7E0CA0EDB1E8E010F5F1F4FA3E0EA2EB7
:103BA000D8010D908D01D6010D926D01EA94C1F7F7
:103BB000E623F723309781F0DA011196FD01EE0F2D
:103BC000FF1FEA0FFB1FE659F84FDE01119603E0D5
:103BD0000D9001920150E1F7FC013196E491F0E083
:103BE000DF01A223B3231097C9F08A010E5F1F4F94
:103BF0006801CC0CDD1CC00ED11EAAE6B7E0CA0ECF
:103C0000DB1E7E010894E11CF11C03E0D7010D903E
:103C10007D01D6010D926D010150C1F76E237F2306
:103C20006115710589F0BA016D5F7F4FFB01EE0FE1
:103C3000FF1FE60FF71FE659F84FDE01119663E00C
:103C40000D9001926150E1F70296FC01849190E0A1
:103C500082239323009781F04C5F5F4FFA01EE0FB0
:103C6000FF1FE40FF51FE659F84FDE01119683E0C0
:103C70000D9001928150E1F70F900F900F90CF912E
:103C8000DF911F910F91FF90EF90DF90CF900895FB
:103C9000AF92BF92CF92DF92EF92FF920F931F935A
:103CA000DF93CF9300D000D000D0CDB7DEB70C8328
:103CB0001D832E83E61608F4CCC0E62FF0E0339681
:103CC0002E2D30E0E217F3070CF4C3C0982F90526A
:103CD0009F3508F0BEC0A82FB0E0AA0FBB1FAC5A9A
:103CE000BE4F2D913C9111972115310509F4B1C0BA
:103CF000CE0101968C0154E0C52ED12CCC0EDD1ED8
:103D000053E0D6010D906D01D8010D928D015150F7
:103D1000C1F7A0915202B0E0EA17FB070CF099C07E
:103D200050E04C3251050CF094C0E61AFF2467E0D5
:103D300070E06E197F09A1E0B0E0FD0102C0EE0F56
:103D4000FF1F6A95E2F7BF01E3E0F0E0EE19FF091B
:103D50005D0102C0AA0CBB1CEA95E2F7F9010491CF
:103D600010E0F801E623F723309781F0FA01EE0F17
:103D7000FF1FE40FF51FE659F84F7C01A3E0DA2E90
:103D8000D7010D907D010192DA94D1F70A211B2110
:103D90000115110599F08A010F5F1F4FF801EE0F11
:103DA000FF1FE00FF11FE659F84F8C01A3E0EA2E48
:103DB000D8010D908D010192EA94D1F7F901319665
:103DC000049110E0F801E623F7233097A9F0E2E030
:103DD000EE2EF12CE40EF51EF701EE0FFF1FEE0D97
:103DE000FF1DE659F84F7C01A3E0DA2ED7010D90B4
:103DF0007D010192DA94D1F7D501A023B123109768
:103E000079F0DA011396FD01EE0FFF1FEA0FFB1F99
:103E1000E659F84FDC0103E00D9001920150E1F703
:103E20002E5F3F4FF901249130E0262337232115DF
:103E3000310579F04C5F5F4FFA01EE0FFF1FE40F81
:103E4000F51FE659F84FDC0183E00D900192815097
:103E5000E1F726960FB6F894DEBF0FBECDBFCF9127
:103E6000DF911F910F91FF90EF90DF90CF90BF9067
:103E7000AF9008952F923F924F925F926F927F92F0
:103E80008F929F92AF92BF92CF92DF92EF92FF926A
:103E90000F931F93DF93CF93CDB7DEB767970FB61E
:103EA000F894DEBF0FBECDBFDC01562F0F831887FD
:103EB00029875E2CCC902C2D30E02115310509F49A
:103EC0003DC1E0915202842E99248E2F65E00E941C
:103ED000B3227E2D751B652F90E0AE014F5F5F4FC3
:103EE0002E2C3324EE2EFF24FD8AEC8A8401000F51
:103EF000111F080D191D0659184F1B870A87F40159
:103F000031967F01EE0CFF1CEE0EFF1E8701065955
:103F1000184F1D870C87F40132967F01EE0CFF1CB1
:103F2000EE0EFF1E87010659184F1F870E87F401FA
:103F300033967F01EE0CFF1CEE0EFF1E8701065923
:103F4000184F198B088BF40134967F01EE0CFF1C7F
:103F5000EE0EFF1E87010659184F1B8B0A8B34018A
:103F60007A01FE01379613E0A12E8D010190D70151
:103F70000D927D01AA94D1F7D801561608F4CFC04E
:103F8000E62FF0E03396FF8BEE8BE215F3050CF491
:103F9000C6C0F0EECF0E0C2D0F3508F0C0C0220FBA
:103FA000331F2C5A3E4FF9012081318121153105F3
:103FB00009F4B5C014E0C12ED12CCC0EDD1E7A015F
:103FC000F3E0AF2E8D014601CE88DF88F401D701E2
:103FD0000D907D010192AA94D1F7DF8ACE8AD80193
:103FE000EC89FD89CE16DF060CF099C0FCE26F1655
:103FF00071040CF094C0F901C490DD24E72EFF2475
:10400000E7E08E2E912C8E189F08F601082C02C036
:10401000F595E7950A94E2F7E0FF11C0EA85FB8584
:1040200014E0A12EB12CAC0EBD1E03E0402E8D017C
:10403000D5010D905D0101924A94D1F7D80103E0BA
:10404000A02EB12CAE18BF08F6010A2C02C0F595BF
:10405000E7950A94E2F7E0FF11C0EC85FD8514E0D6
:10406000E12EF12CEC0EFD1E03E0C02E8D01D701D8
:104070000D907D010192CA94D1F7D801F9013196D2
:10408000E490FF24F701082C02C0F595E7950A9407
:10409000E2F7E0FF11C0EE85FF8514E0C12ED12CC0
:1040A000CC0EDD1E03E0402E8D01D6010D906D017A
:1040B00001924A94D1F7D80102C0F594E794AA94EA
:1040C000E2F7E0FE11C0E889F98914E0E12EF12C55
:1040D000EC0EFD1E03E0C02E8D01D7010D907D0179
:1040E0000192CA94D1F7D8012E5F3F4FF901249174
:1040F00030E002C0359527958A94E2F720FF0FC083
:10410000EA89FB899E012C5F3F4F13E0E12E8D0170
:10411000D9010D909D010192EA94D1F7D8019F5FDA
:10412000FD01E90FF11DC0802C2D30E02115310576
:1041300029F07550891710F06B5F12CF67960FB694
:10414000F894DEBF0FBECDBFCF91DF911F910F91CD
:10415000FF90EF90DF90CF90BF90AF909F908F90A7
:104160007F906F905F904F903F902F900895BF92F7
:10417000CF92DF92EF92FF920F931F93DF93CF9333
:10418000CDB7DEB72E970FB6F894DEBF0FBECDBF0A
:10419000D42EB22EEC86FD860E87603028EE720794
:1041A00026E7820728E4920708F07BC0FAE0EF2EAA
:1041B000F12C012D112DA80197010E94D222605DE2
:1041C0006B87CA01B901A80197010E94D222605DE4
:1041D0006A87CA01B901A80197010E94D222605DD5
:1041E0006987CA01B901A80197010E94D222605DC6
:1041F0006887CA01B901A80197010E94D222605DB7
:104200006F83CA01B901A80197010E94D222605DA3
:104210006E83CA01B901A80197010E94D222605D94
:104220006D83CA01B901A80197010E94D222605D85
:104230006C83CA01B901A80197010E94D222605D76
:104240006B83CA01B901A80197010E94D222605D67
:104250006A8380E389837BE0AE014F5F5F4F9E01FD
:104260002E5F3F4F723068F1FA01872F8250D901DB
:10427000A80FB11DCD01618161931082E817F90784
:10428000D1F789817150803301F5713059F7CE0132
:1042900001966D2D4B2D0C851D852E85EC2C0E94D5
:1042A0003A1F2E960FB6F894DEBF0FBECDBFCF914A
:1042B000DF911F910F91FF90EF90DF90CF90BF9013
:1042C000089580E37150803301F3772351F3DFCFFA
:1042D000CF930E9482050E940F080E94CA120E947A
:1042E000820410925302C1E00DC08091520290915D
:1042F00053028150891B0E94E312809153028F5F09
:10430000809353020E942208882331F08091630138
:10431000882311F0C093540280915302823389F0B4
:1043200080915402882309F30E94AD0680915302C4
:10433000815080935202109254021092530290E0E6
:10434000D8CF0E941708ECCFDF93CF9300D00F9205
:10435000CDB7DEB7873009F44DC0883080F08B30A0
:1043600009F44CC08C30F0F08D30E1F18D30B0F1BB
:104370008F3009F453C080E070E060E00CC08330FF
:10438000A9F18430B8F0853009F440C08630D0F40B
:1043900082E072E060E090E00F900F900F90CF917C
:1043A000DF910895893071F18A30A0F08FEF7FEFAF
:1043B00060E0F1CF813071F1823040F080E870E050
:1043C00060E0E9CF80E070E06FEFE5CF80E070E083
:1043D00060E8E1CF8FEF70E060E0DDCF8FEF7FEF3F
:1043E0006FEFD9CF8CE37CE36CE3D5CF80E070E84E
:1043F00060E8D1CF80E07FEF60E0CDCF8FEF70E05D
:104400006FEFC9CF80E07FEF6FEFC5CF80E870E03E
:1044100060E8C1CF80E070E860E0BDCF80E075EA81
:104420006FEFB9CF9F92AF92BF92CF92DF92EF9290
:10443000FF920F931F93CF93DF93E82F59016623C9
:1044400009F45CC0C42FD0E0262F30E08FEF90E05D
:10445000821B930B8C9FB0018D9F700D9C9F700DE4
:10446000112477FD6CC0F72F8E2F6BE20E94B322D0
:10447000C92EDD24C29EB001C39E700DD29E700D68
:10448000112486ED99E2861B970B6AE270E00E9488
:10449000BF226C9FC0016D9F900D7C9F900D1124D9
:1044A00097FD50C0992EB6016A527040629FC001BC
:1044B000639F900D729F900D11248A52964D6AE26F
:1044C00070E00E94BF226C9F90016D9F300D7C9F19
:1044D000300D112437FD39C0232F330F330B522FEA
:1044E0008E2F6BE20E94B322833029F18430D8F4FE
:1044F000813071F1823099F1842F03C0F42F542F51
:10450000842FD5018C93D8015C93D701FC93DF9164
:10451000CF911F910F91FF90EF90DF90CF90BF90C0
:10452000AF909F9008958430B1F0853029F75F2FC8
:10453000F92D842FE6CF8F2F592DF42FE2CF615024
:104540007F4F91CF81509F4FADCF21503F4FC4CF70
:10455000892D542FD6CF822F5F2FF42FD2CF8F2FBC
:10456000F22F542FCECF991B79E004C0991F9617D4
:1045700008F0961B881F7A95C9F78095089597FBD8
:10458000092E07260AD077FD04D02ED006D00020B1
:104590001AF4709561957F4F0895F6F7909581957F
:1045A0009F4F0895A1E21A2EAA1BBB1BFD010DC04F
:1045B000AA1FBB1FEE1FFF1FA217B307E407F507D3
:1045C00020F0A21BB30BE40BF50B661F771F881FAF
:1045D000991F1A9469F760957095809590959B0145
:1045E000AC01BD01CF010895AA1BBB1B51E107C05F
:1045F000AA1FBB1FA617B70710F0A61BB70B881F73
:10460000991F5A95A9F780959095BC01CD01089501
:10461000CF93DF938230910510F482E090E0E09137
:104620001C08F0911D0840E050E020E030E026C07A
:104630006081718168177907E0F06817790781F464
:10464000828193812115310531F0D90113969C9314
:104650008E9312972BC090931D0880931C0826C040
:104660004115510519F06417750718F4AB01E901FC
:10467000DF019F0172816381E72FF62F3097C1F62A
:104680004115510501F1481B590B4430510580F487
:1046900012968D919C911397209719F09B838A8392
:1046A00004C090931D0880931C08FD01329646C0FB
:1046B000FD01E40FF51F81939193425050401196F4
:1046C0005C934E933BC020911A0830911B08211532
:1046D000310541F42091590130915A0130931B0862
:1046E00020931A0820915B0130915C01211531055E
:1046F00041F42DB73EB74091570150915801241B0A
:10470000350BE0911A08F0911B08E217F307A0F4AB
:104710002E1B3F0B2817390778F0AC014E5F5F4F17
:104720002417350748F04E0F5F1F50931B08409326
:104730001A088193919302C0E0E0F0E0CF01DF918D
:10474000CF910895CF93DF93009709F491C0FC01B6
:1047500032971382128260911C0870911D086115B6
:10476000710581F420813181280F391F80911A0849
:1047700090911B088217930799F5F0931B08E0931B
:104780001A0876C0DB0180E090E002C0CD01D901BB
:10479000AE17BF0748F412962D913C91139721153F
:1047A0003105A1F7CD0121C0B383A283EF01499167
:1047B00059919E01240F351FA217B30779F42D914B
:1047C0003C911197240F351F2E5F3F4F318320837B
:1047D00012962D913C91139733832283009729F4ED
:1047E000F0931D08E0931C0843C0DC011396FC9372
:1047F000EE9312974D915D91A40FB51FEA17FB0739
:1048000069F420813181240F351F2E5F3F4FEC0169
:1048100039832883228133813B832A83E0E0F0E0DF
:1048200002C0FB01BC01DB0112968D919C91139794
:104830000097B9F79B012E5F3F4F8D919C91119787
:10484000820F931F40911A0850911B08481759076F
:1048500079F4309729F410921D0810921C0802C0B8
:10486000138212822250304030931B0820931A0882
:10487000DF91CF910895A0E0B0E0E1E4F4E20C9480
:104880000225EC01688179818A819B81611571051E
:104890008105910521F464E279ED8BE597E02DE146
:1048A00033EF41E050E00E94DF2479018A0127EADA
:1048B00031E440E050E00E94C0245B016C01C8017B
:1048C000B7012CEE34EF4FEF5FEF0E94C0246A0D6A
:1048D0007B1D8C1D9D1D97FF04C061507040804062
:1048E0009048688379838A839B837F77CB01CDB798
:1048F000DEB7EAE00C941E250E943B2408958DE566
:1049000091E00E943B240895A0E0B0E080935D0117
:1049100090935E01A0935F01B09360010895FB0145
:104920009F01E8944230C4F04532B4F44A3029F48F
:1049300097FB1EF4909581959F4F642F77270E94D7
:10494000F422805D8A330CF0895D8193CB0100975E
:10495000A1F716F45DE251931082C9010C94B024C2
:10496000DC01FC01672F71917723E1F7329704C0D6
:104970007C916D9370836291AE17BF07C8F3089561
:10498000629FD001739FF001829FE00DF11D649F33
:10499000E00DF11D929FF00D839FF00D749FF00DBF
:1049A000659FF00D9927729FB00DE11DF91F639F60
:1049B000B00DE11DF91FBD01CF011124089597FB32
:1049C000092E05260ED057FD04D0ECDD0AD0001CC0
:1049D00038F450954095309521953F4F4F4F5F4F9C
:1049E0000895F6F790958095709561957F4F8F4F5C
:1049F0009F4F08952F923F924F925F926F927F92B6
:104A00008F929F92AF92BF92CF92DF92EF92FF92DE
:104A10000F931F93CF93DF93CDB7DEB7CA1BDB0B8A
:104A20000FB6F894DEBF0FBECDBF09942A8839882F
:104A300048885F846E847D848C849B84AA84B98436
:104A4000C884DF80EE80FD800C811B81AA81B98142
:104A5000CE0FD11D0FB6F894DEBF0FBECDBFED0156
:064A60000895F894FFCF59
:104A660053656C204D6F6465005247422046616471
:104A760065005374726970657300474F4C0052614C
:104A8600696E00576F726C64204D617000506F6ED6
:104A96006700536E616B6500466C617070790054F7
:104AA600657374004D616E75616C0048656C6C6F62
:104AB60020576F726C640020001E08000001000081
:104AC60000820501E1110906128E116B112E0B6A87
:104AD600110F1D00156F1B800FE111CC110001098C
:104AE6000112011A011E0123012D01320138013F75
:104AF60001440101550758075B075E076107640714
:104B060067076A076D0770077307760779077C07DB
:104B16007F078207850788078B078E07910794070B
:104B260097079A079D07A007A307A607A907AC073B
:104B3600AF07B207B507B807BB07BE07C107C4076B
:104B4600C707CA07CD07D007D307D607D907DC079B
:104B5600DF07E207E507E807EB07EE07F107F407CB
:104B6600F707FA07FD0700080308060809080C08F6
:104B76000F081208150818081B081E082108240823
:104B860027082A082D0830083308360839083C0853
:104B96003F084208450848084B084E085108540883
:104BA60057085A085D0860086308660869086C08B3
:024BB6006F0886
:00000001FF
